{
  "contractName": "Covid19_blockchain",
  "abi": [
    {
      "constant": true,
      "inputs": [
        {
          "internalType": "uint256",
          "name": "",
          "type": "uint256"
        }
      ],
      "name": "Indian_states",
      "outputs": [
        {
          "internalType": "uint256",
          "name": "id",
          "type": "uint256"
        },
        {
          "internalType": "string",
          "name": "state_name",
          "type": "string"
        },
        {
          "internalType": "uint256",
          "name": "Covid19_activecases",
          "type": "uint256"
        },
        {
          "internalType": "uint256",
          "name": "Covid19_effectedcases",
          "type": "uint256"
        },
        {
          "internalType": "uint256",
          "name": "Covid19_deaths",
          "type": "uint256"
        },
        {
          "internalType": "uint256",
          "name": "Covid19_recovered",
          "type": "uint256"
        }
      ],
      "payable": false,
      "stateMutability": "view",
      "type": "function"
    },
    {
      "constant": true,
      "inputs": [],
      "name": "nextid",
      "outputs": [
        {
          "internalType": "uint256",
          "name": "",
          "type": "uint256"
        }
      ],
      "payable": false,
      "stateMutability": "view",
      "type": "function"
    },
    {
      "constant": false,
      "inputs": [
        {
          "internalType": "string",
          "name": "state_name",
          "type": "string"
        },
        {
          "internalType": "uint256",
          "name": "activecases",
          "type": "uint256"
        },
        {
          "internalType": "uint256",
          "name": "effectedcases",
          "type": "uint256"
        },
        {
          "internalType": "uint256",
          "name": "Deaths",
          "type": "uint256"
        },
        {
          "internalType": "uint256",
          "name": "Recovered",
          "type": "uint256"
        }
      ],
      "name": "New_state",
      "outputs": [],
      "payable": false,
      "stateMutability": "nonpayable",
      "type": "function"
    },
    {
      "constant": true,
      "inputs": [
        {
          "internalType": "string",
          "name": "state_name",
          "type": "string"
        }
      ],
      "name": "Search_statename",
      "outputs": [
        {
          "internalType": "string",
          "name": "",
          "type": "string"
        },
        {
          "internalType": "uint256",
          "name": "",
          "type": "uint256"
        },
        {
          "internalType": "string",
          "name": "",
          "type": "string"
        },
        {
          "internalType": "string",
          "name": "",
          "type": "string"
        },
        {
          "internalType": "string",
          "name": "",
          "type": "string"
        },
        {
          "internalType": "uint256",
          "name": "",
          "type": "uint256"
        },
        {
          "internalType": "string",
          "name": "",
          "type": "string"
        },
        {
          "internalType": "uint256",
          "name": "",
          "type": "uint256"
        },
        {
          "internalType": "string",
          "name": "",
          "type": "string"
        },
        {
          "internalType": "uint256",
          "name": "",
          "type": "uint256"
        },
        {
          "internalType": "string",
          "name": "",
          "type": "string"
        },
        {
          "internalType": "uint256",
          "name": "",
          "type": "uint256"
        }
      ],
      "payable": false,
      "stateMutability": "view",
      "type": "function"
    },
    {
      "constant": false,
      "inputs": [
        {
          "internalType": "string",
          "name": "state_name",
          "type": "string"
        },
        {
          "internalType": "uint256",
          "name": "activecases",
          "type": "uint256"
        },
        {
          "internalType": "uint256",
          "name": "effectedcases",
          "type": "uint256"
        },
        {
          "internalType": "uint256",
          "name": "Deaths",
          "type": "uint256"
        },
        {
          "internalType": "uint256",
          "name": "Recovered",
          "type": "uint256"
        }
      ],
      "name": "Update_state",
      "outputs": [],
      "payable": false,
      "stateMutability": "nonpayable",
      "type": "function"
    },
    {
      "constant": false,
      "inputs": [
        {
          "internalType": "string",
          "name": "state_name",
          "type": "string"
        }
      ],
      "name": "Delete_state",
      "outputs": [],
      "payable": false,
      "stateMutability": "nonpayable",
      "type": "function"
    }
  ],
  "bytecode": "0x608060405234801561001057600080fd5b50610e56806100206000396000f3fe608060405234801561001057600080fd5b50600436106100625760003560e01c80631734972c146100675780632d50259d1461007c5780635c29d40d1461008f5780638184ae10146100ad578063dc3131f0146100d2578063e41ac986146100fd575b600080fd5b61007a61007536600461094a565b610110565b005b61007a61008a366004610987565b61016c565b610097610297565b6040516100a49190610ce2565b60405180910390f35b6100c06100bb366004610a13565b61029d565b6040516100a496959493929190610cf0565b6100e56100e036600461094a565b61037e565b6040516100a49c9b9a99989796959493929190610be0565b61007a61010b366004610987565b6105ee565b600061011b826106c2565b90506000818154811061012a57fe5b6000918252602082206006909102018181559061014a6001830182610803565b5060006002820181905560038201819055600482018190556005909101555050565b60006101778661076e565b9050806001141561026e576040805160c08101825260018054825260208083018a8152938301899052606083018890526080830187905260a0830186905260008054928301808255908052835160069093027f290decd9548b62a8d60345a988386fc84ba6bc95484008f6362f93160ef3e5638101938455945180518b9689968c968c9691949093610230937f290decd9548b62a8d60345a988386fc84ba6bc95484008f6362f93160ef3e5640192919091019061084a565b5060408201516002820155606082015160038201556080820151600482015560a090910151600590910155505060018054810190555061028f915050565b60405162461bcd60e51b815260040161028690610cd2565b60405180910390fd5b505050505050565b60015481565b600081815481106102aa57fe5b9060005260206000209060060201600091509050806000015490806001018054600181600116156101000203166002900480601f01602080910402602001604051908101604052809291908181526020018280546001816001161561010002031660029004801561035c5780601f106103315761010080835404028352916020019161035c565b820191906000526020600020905b81548152906001019060200180831161033f57829003601f168201915b5050505050908060020154908060030154908060040154908060050154905086565b60606000606080606060006060600060606000606060008061039f8e6106c2565b9050600081815481106103ae57fe5b906000526020600020906006020160000154600082815481106103cd57fe5b9060005260206000209060060201600101600083815481106103eb57fe5b9060005260206000209060060201600201546000848154811061040a57fe5b9060005260206000209060060201600301546000858154811061042957fe5b9060005260206000209060060201600401546000868154811061044857fe5b600091825260209182902060056006909202010154604080518082018252600280825261125960f21b8286015282518084018452600a8152695374617465206e616d6560b01b8187015289548451601f6000196101006001851615020190921693909304908101879004870283018701909452838252919998919791969195919491939290918791908301828280156105225780601f106104f757610100808354040283529160200191610522565b820191906000526020600020905b81548152906001019060200180831161050557829003601f168201915b505050505094506040518060400160405280600c81526020016b41637469766520636173657360a01b815250939291906040518060400160405280600e81526020016d456666656374656420636173657360901b8152509291906040518060400160405280600681526020016544656174687360d01b81525091906040518060400160405280600f81526020016e5265636f766572656420636173657360881b815250909c509c509c509c509c509c509c509c509c509c509c509c505091939597999b5091939597999b565b60006105f9866106c2565b9050856000828154811061060957fe5b9060005260206000209060060201600101908051906020019061062d92919061084a565b50846000828154811061063c57fe5b906000526020600020906006020160020181905550836000828154811061065f57fe5b906000526020600020906006020160030181905550826000828154811061068257fe5b90600052602060002090600602016004018190555081600082815481106106a557fe5b906000526020600020906006020160050181905550505050505050565b6000805b60005481101561075057826040516020016106e19190610bc1565b604051602081830303815290604052805190602001206000828154811061070457fe5b90600052602060002090600602016001016040516020016107259190610bd4565b604051602081830303815290604052805190602001201415610748579050610769565b6001016106c6565b5060405162461bcd60e51b815260040161028690610cc2565b919050565b60006001815b6000548110156107fc578360405160200161078f9190610bc1565b60405160208183030381529060405280519060200120600082815481106107b257fe5b90600052602060002090600602016001016040516020016107d39190610bd4565b6040516020818303038152906040528051906020012014156107f457600091505b600101610774565b5092915050565b50805460018160011615610100020316600290046000825580601f106108295750610847565b601f01602090049060005260206000209081019061084791906108c8565b50565b828054600181600116156101000203166002900490600052602060002090601f016020900481019282601f1061088b57805160ff19168380011785556108b8565b828001600101855582156108b8579182015b828111156108b857825182559160200191906001019061089d565b506108c49291506108c8565b5090565b6108e291905b808211156108c457600081556001016108ce565b90565b600082601f8301126108f657600080fd5b813561090961090482610d78565b610d51565b9150808252602083016020830185838301111561092557600080fd5b610930838284610db9565b50505092915050565b803561094481610dff565b92915050565b60006020828403121561095c57600080fd5b813567ffffffffffffffff81111561097357600080fd5b61097f848285016108e5565b949350505050565b600080600080600060a0868803121561099f57600080fd5b853567ffffffffffffffff8111156109b657600080fd5b6109c2888289016108e5565b95505060206109d388828901610939565b94505060406109e488828901610939565b93505060606109f588828901610939565b9250506080610a0688828901610939565b9150509295509295909350565b600060208284031215610a2557600080fd5b600061097f8484610939565b6000610a3c82610dac565b610a468185610db0565b9350610a56818560208601610dc5565b610a5f81610df5565b9093019392505050565b6000610a7482610dac565b610a7e8185610769565b9350610a8e818560208601610dc5565b9290920192915050565b600081546001811660008114610ab55760018114610ad857610b17565b607f6002830416610ac68187610769565b60ff1984168152955085019250610b17565b60028204610ae68187610769565b9550610af185610da0565b60005b82811015610b1057815488820152600190910190602001610af4565b5050850192505b505092915050565b6000610b2c602883610db0565b7f5468697320737461746520646f6573206e6f7420657869737420696e20626c6f815267636b636861696e2160c01b602082015260400192915050565b6000610b76602783610db0565b7f5468697320737461746520616c726561647920657869737420696e20626c6f638152666b636861696e2160c81b602082015260400192915050565b610bbb816108e2565b82525050565b6000610bcd8284610a69565b9392505050565b6000610bcd8284610a98565b6101808082528101610bf2818f610a31565b9050610c01602083018e610bb2565b8181036040830152610c13818d610a31565b90508181036060830152610c27818c610a31565b90508181036080830152610c3b818b610a31565b9050610c4a60a083018a610bb2565b81810360c0830152610c5c8189610a31565b9050610c6b60e0830188610bb2565b818103610100830152610c7e8187610a31565b9050610c8e610120830186610bb2565b818103610140830152610ca18185610a31565b9050610cb1610160830184610bb2565b9d9c50505050505050505050505050565b6020808252810161094481610b1f565b6020808252810161094481610b69565b602081016109448284610bb2565b60c08101610cfe8289610bb2565b8181036020830152610d108188610a31565b9050610d1f6040830187610bb2565b610d2c6060830186610bb2565b610d396080830185610bb2565b610d4660a0830184610bb2565b979650505050505050565b60405181810167ffffffffffffffff81118282101715610d7057600080fd5b604052919050565b600067ffffffffffffffff821115610d8f57600080fd5b506020601f91909101601f19160190565b60009081526020902090565b5190565b90815260200190565b82818337506000910152565b60005b83811015610de0578181015183820152602001610dc8565b83811115610def576000848401525b50505050565b601f01601f191690565b610e08816108e2565b811461084757600080fdfea365627a7a723158203a57ad26aefea424478bd3a6689a490a8ecae32cebe19b1a8582006e0027e7126c6578706572696d656e74616cf564736f6c63430005100040",
  "source": "     pragma solidity ^0.5.0;\r\npragma experimental ABIEncoderV2;\r\ncontract Covid19_blockchain{\r\n    struct Indian{\r\n        uint id;\r\n        string state_name;\r\n        uint Covid19_activecases;\r\n        uint Covid19_effectedcases;\r\n        uint Covid19_deaths;\r\n        uint Covid19_recovered;\r\n        \r\n        \r\n    }\r\n    Indian[] public Indian_states;\r\n    uint public nextid;\r\n    \r\n    function New_state(string memory state_name,uint activecases, uint  effectedcases,uint Deaths,uint   Recovered) public{\r\n            uint k=findd_id(state_name);\r\n            if(k==1){\r\n            uint Covid19_activecases=activecases;\r\n            uint Covid19_recovered=Recovered;\r\n            uint Covid19_effectedcases=effectedcases;\r\n            uint Covid19_deaths=Deaths;\r\n            Indian_states.push(Indian(nextid,state_name,Covid19_activecases,Covid19_effectedcases,Covid19_deaths,Covid19_recovered));\r\n            nextid++;}\r\n            else\r\n             revert('This state already exist in blockchain!');\r\n            \r\n        }\r\n        function Search_statename(string memory state_name)view public returns(string memory,uint,string memory,string memory,string memory,uint,string memory,uint,string memory,uint,string memory,uint){\r\n            \r\n            uint i=find_id(state_name);\r\n                    return(\"Id\",Indian_states[i].id,\"State name\",Indian_states[i].state_name,\"Active cases\",Indian_states[i].Covid19_activecases,\"Effected cases\",Indian_states[i].Covid19_effectedcases,\"Deaths\",Indian_states[i].Covid19_deaths,\"Recovered cases\",Indian_states[i].Covid19_recovered);\r\n                \r\n                \r\n            \r\n        }\r\n        function Update_state(string memory state_name,uint activecases, uint  effectedcases,uint Deaths,uint   Recovered)public{\r\n             uint i=find_id(state_name);\r\n                  Indian_states[i].state_name=state_name;\r\n                  Indian_states[i].Covid19_activecases=activecases;\r\n                  Indian_states[i].Covid19_effectedcases=effectedcases;\r\n                  Indian_states[i].Covid19_deaths=Deaths;\r\n                  Indian_states[i].Covid19_recovered=Recovered;  \r\n                \r\n                \r\n            \r\n            \r\n        }\r\n        function Delete_state(string memory state_name)public{\r\n            uint i=find_id(state_name);\r\n                  delete Indian_states[i]; \r\n                \r\n            \r\n        }\r\n        function find_id(string memory state_name)view internal returns(uint){\r\n            for(uint i=0;i<Indian_states.length;i++){\r\n                if(keccak256(abi.encodePacked(Indian_states[i].state_name))== keccak256(abi.encodePacked(state_name)))\r\n                {\r\n                    return i;\r\n                }\r\n            }\r\n            revert('This state does not exist in blockchain!');\r\n        }\r\n         function findd_id(string memory state_name)view internal returns(uint){\r\n             uint k=1;\r\n            for(uint i=0;i<Indian_states.length;i++){\r\n                if(keccak256(abi.encodePacked(Indian_states[i].state_name))== keccak256(abi.encodePacked(state_name)))\r\n                {\r\n                     k=0;\r\n                }\r\n            }\r\n            return k;\r\n           \r\n        }\r\n        \r\n        \r\n        \r\n    \r\n}\r\n        \r\n        \r\n        \r\n",
  "sourcePath": "F:\\daap local zip\\contracts\\Covid19_blockchain.sol",
  "compiler": {
    "name": "solc",
    "version": "0.5.16+commit.9c3226ce.Emscripten.clang"
  },
  "schemaVersion": "3.1.0",
  "updatedAt": "2020-08-21T08:08:03.451Z",
  "networkType": "ethereum",
  "devdoc": {
    "methods": {}
  },
  "userdoc": {
    "methods": {}
  }
}