{
  "contractName": "HealthSystem",
  "abi": [
    {
      "constant": true,
      "inputs": [
        {
          "internalType": "uint256",
          "name": "",
          "type": "uint256"
        }
      ],
      "name": "Doctors_list",
      "outputs": [
        {
          "internalType": "uint256",
          "name": "doctorId",
          "type": "uint256"
        },
        {
          "internalType": "string",
          "name": "name",
          "type": "string"
        },
        {
          "internalType": "uint256",
          "name": "licenseNo",
          "type": "uint256"
        },
        {
          "internalType": "string",
          "name": "specialization",
          "type": "string"
        }
      ],
      "payable": false,
      "stateMutability": "view",
      "type": "function"
    },
    {
      "constant": true,
      "inputs": [
        {
          "internalType": "uint256",
          "name": "",
          "type": "uint256"
        }
      ],
      "name": "HealthRecords_list",
      "outputs": [
        {
          "internalType": "uint256",
          "name": "healthRecordId",
          "type": "uint256"
        },
        {
          "internalType": "uint256",
          "name": "patientId",
          "type": "uint256"
        },
        {
          "internalType": "uint256",
          "name": "doctorId",
          "type": "uint256"
        },
        {
          "internalType": "string",
          "name": "prescription",
          "type": "string"
        },
        {
          "internalType": "string",
          "name": "feedBack",
          "type": "string"
        },
        {
          "internalType": "string",
          "name": "disease",
          "type": "string"
        }
      ],
      "payable": false,
      "stateMutability": "view",
      "type": "function"
    },
    {
      "constant": true,
      "inputs": [
        {
          "internalType": "uint256",
          "name": "",
          "type": "uint256"
        }
      ],
      "name": "Patients_list",
      "outputs": [
        {
          "internalType": "uint256",
          "name": "patientId",
          "type": "uint256"
        },
        {
          "internalType": "string",
          "name": "name",
          "type": "string"
        },
        {
          "internalType": "uint256",
          "name": "yearOfBirth",
          "type": "uint256"
        },
        {
          "internalType": "string",
          "name": "gender",
          "type": "string"
        },
        {
          "internalType": "string",
          "name": "city",
          "type": "string"
        }
      ],
      "payable": false,
      "stateMutability": "view",
      "type": "function"
    },
    {
      "constant": true,
      "inputs": [
        {
          "internalType": "uint256",
          "name": "",
          "type": "uint256"
        }
      ],
      "name": "Result",
      "outputs": [
        {
          "internalType": "string",
          "name": "name",
          "type": "string"
        },
        {
          "internalType": "uint256",
          "name": "val",
          "type": "uint256"
        }
      ],
      "payable": false,
      "stateMutability": "view",
      "type": "function"
    },
    {
      "constant": true,
      "inputs": [
        {
          "internalType": "string",
          "name": "",
          "type": "string"
        },
        {
          "internalType": "string",
          "name": "",
          "type": "string"
        }
      ],
      "name": "cityDiseaseMp",
      "outputs": [
        {
          "internalType": "uint256",
          "name": "",
          "type": "uint256"
        }
      ],
      "payable": false,
      "stateMutability": "view",
      "type": "function"
    },
    {
      "constant": true,
      "inputs": [
        {
          "internalType": "string",
          "name": "",
          "type": "string"
        },
        {
          "internalType": "uint256",
          "name": "",
          "type": "uint256"
        }
      ],
      "name": "cityDiseases",
      "outputs": [
        {
          "internalType": "string",
          "name": "",
          "type": "string"
        }
      ],
      "payable": false,
      "stateMutability": "view",
      "type": "function"
    },
    {
      "constant": true,
      "inputs": [
        {
          "internalType": "string",
          "name": "",
          "type": "string"
        },
        {
          "internalType": "string",
          "name": "",
          "type": "string"
        }
      ],
      "name": "diseaseCityMp",
      "outputs": [
        {
          "internalType": "uint256",
          "name": "",
          "type": "uint256"
        }
      ],
      "payable": false,
      "stateMutability": "view",
      "type": "function"
    },
    {
      "constant": true,
      "inputs": [
        {
          "internalType": "string",
          "name": "",
          "type": "string"
        },
        {
          "internalType": "uint256",
          "name": "",
          "type": "uint256"
        }
      ],
      "name": "diseaseInCities",
      "outputs": [
        {
          "internalType": "string",
          "name": "",
          "type": "string"
        }
      ],
      "payable": false,
      "stateMutability": "view",
      "type": "function"
    },
    {
      "constant": true,
      "inputs": [
        {
          "internalType": "string",
          "name": "",
          "type": "string"
        }
      ],
      "name": "isCityPresent",
      "outputs": [
        {
          "internalType": "uint256",
          "name": "",
          "type": "uint256"
        }
      ],
      "payable": false,
      "stateMutability": "view",
      "type": "function"
    },
    {
      "constant": true,
      "inputs": [
        {
          "internalType": "string",
          "name": "",
          "type": "string"
        }
      ],
      "name": "isDiseasePresent",
      "outputs": [
        {
          "internalType": "uint256",
          "name": "",
          "type": "uint256"
        }
      ],
      "payable": false,
      "stateMutability": "view",
      "type": "function"
    },
    {
      "constant": true,
      "inputs": [],
      "name": "nextDoctorId",
      "outputs": [
        {
          "internalType": "uint256",
          "name": "",
          "type": "uint256"
        }
      ],
      "payable": false,
      "stateMutability": "view",
      "type": "function"
    },
    {
      "constant": true,
      "inputs": [],
      "name": "nextPatientId",
      "outputs": [
        {
          "internalType": "uint256",
          "name": "",
          "type": "uint256"
        }
      ],
      "payable": false,
      "stateMutability": "view",
      "type": "function"
    },
    {
      "constant": true,
      "inputs": [],
      "name": "nextRecordId",
      "outputs": [
        {
          "internalType": "uint256",
          "name": "",
          "type": "uint256"
        }
      ],
      "payable": false,
      "stateMutability": "view",
      "type": "function"
    },
    {
      "constant": true,
      "inputs": [
        {
          "internalType": "uint256",
          "name": "",
          "type": "uint256"
        }
      ],
      "name": "tmp",
      "outputs": [
        {
          "internalType": "string",
          "name": "name",
          "type": "string"
        },
        {
          "internalType": "uint256",
          "name": "val",
          "type": "uint256"
        }
      ],
      "payable": false,
      "stateMutability": "view",
      "type": "function"
    },
    {
      "constant": false,
      "inputs": [
        {
          "internalType": "string",
          "name": "name",
          "type": "string"
        },
        {
          "internalType": "uint256",
          "name": "yearOfBirth",
          "type": "uint256"
        },
        {
          "internalType": "string",
          "name": "gender",
          "type": "string"
        },
        {
          "internalType": "string",
          "name": "city",
          "type": "string"
        }
      ],
      "name": "newPatientReg",
      "outputs": [],
      "payable": false,
      "stateMutability": "nonpayable",
      "type": "function"
    },
    {
      "constant": true,
      "inputs": [
        {
          "internalType": "uint256",
          "name": "patientId",
          "type": "uint256"
        }
      ],
      "name": "searchPatient",
      "outputs": [
        {
          "internalType": "string",
          "name": "",
          "type": "string"
        },
        {
          "internalType": "uint256",
          "name": "",
          "type": "uint256"
        },
        {
          "internalType": "string",
          "name": "",
          "type": "string"
        },
        {
          "internalType": "string",
          "name": "",
          "type": "string"
        },
        {
          "internalType": "string",
          "name": "",
          "type": "string"
        },
        {
          "internalType": "uint256",
          "name": "",
          "type": "uint256"
        },
        {
          "internalType": "string",
          "name": "",
          "type": "string"
        },
        {
          "internalType": "string",
          "name": "",
          "type": "string"
        }
      ],
      "payable": false,
      "stateMutability": "view",
      "type": "function"
    },
    {
      "constant": true,
      "inputs": [],
      "name": "getAllPatients",
      "outputs": [
        {
          "components": [
            {
              "internalType": "uint256",
              "name": "patientId",
              "type": "uint256"
            },
            {
              "internalType": "string",
              "name": "name",
              "type": "string"
            },
            {
              "internalType": "uint256",
              "name": "yearOfBirth",
              "type": "uint256"
            },
            {
              "internalType": "string",
              "name": "gender",
              "type": "string"
            },
            {
              "internalType": "string",
              "name": "city",
              "type": "string"
            }
          ],
          "internalType": "struct HealthSystem.Patient[]",
          "name": "",
          "type": "tuple[]"
        }
      ],
      "payable": false,
      "stateMutability": "view",
      "type": "function"
    },
    {
      "constant": false,
      "inputs": [
        {
          "internalType": "string",
          "name": "name",
          "type": "string"
        },
        {
          "internalType": "uint256",
          "name": "licenseNo",
          "type": "uint256"
        },
        {
          "internalType": "string",
          "name": "specialization",
          "type": "string"
        }
      ],
      "name": "newDoctorReg",
      "outputs": [],
      "payable": false,
      "stateMutability": "nonpayable",
      "type": "function"
    },
    {
      "constant": true,
      "inputs": [],
      "name": "getAllDoctors",
      "outputs": [
        {
          "components": [
            {
              "internalType": "uint256",
              "name": "doctorId",
              "type": "uint256"
            },
            {
              "internalType": "string",
              "name": "name",
              "type": "string"
            },
            {
              "internalType": "uint256",
              "name": "licenseNo",
              "type": "uint256"
            },
            {
              "internalType": "string",
              "name": "specialization",
              "type": "string"
            }
          ],
          "internalType": "struct HealthSystem.Doctor[]",
          "name": "",
          "type": "tuple[]"
        }
      ],
      "payable": false,
      "stateMutability": "view",
      "type": "function"
    },
    {
      "constant": false,
      "inputs": [
        {
          "internalType": "uint256",
          "name": "patientId",
          "type": "uint256"
        },
        {
          "internalType": "uint256",
          "name": "doctorId",
          "type": "uint256"
        },
        {
          "internalType": "string",
          "name": "prescription",
          "type": "string"
        },
        {
          "internalType": "string",
          "name": "feedBack",
          "type": "string"
        },
        {
          "internalType": "string",
          "name": "disease",
          "type": "string"
        }
      ],
      "name": "newRecordReg",
      "outputs": [],
      "payable": false,
      "stateMutability": "nonpayable",
      "type": "function"
    },
    {
      "constant": true,
      "inputs": [],
      "name": "getAllHealthRecords",
      "outputs": [
        {
          "components": [
            {
              "internalType": "uint256",
              "name": "healthRecordId",
              "type": "uint256"
            },
            {
              "internalType": "uint256",
              "name": "patientId",
              "type": "uint256"
            },
            {
              "internalType": "uint256",
              "name": "doctorId",
              "type": "uint256"
            },
            {
              "internalType": "string",
              "name": "prescription",
              "type": "string"
            },
            {
              "internalType": "string",
              "name": "feedBack",
              "type": "string"
            },
            {
              "internalType": "string",
              "name": "disease",
              "type": "string"
            }
          ],
          "internalType": "struct HealthSystem.HealthRecord[]",
          "name": "",
          "type": "tuple[]"
        }
      ],
      "payable": false,
      "stateMutability": "view",
      "type": "function"
    },
    {
      "constant": false,
      "inputs": [
        {
          "internalType": "string",
          "name": "city",
          "type": "string"
        }
      ],
      "name": "getDiseaseInCity",
      "outputs": [
        {
          "components": [
            {
              "internalType": "string",
              "name": "name",
              "type": "string"
            },
            {
              "internalType": "uint256",
              "name": "val",
              "type": "uint256"
            }
          ],
          "internalType": "struct HealthSystem.OutputRecord[]",
          "name": "",
          "type": "tuple[]"
        }
      ],
      "payable": false,
      "stateMutability": "nonpayable",
      "type": "function"
    },
    {
      "constant": false,
      "inputs": [
        {
          "internalType": "string",
          "name": "disease",
          "type": "string"
        }
      ],
      "name": "getCityByDisease",
      "outputs": [
        {
          "components": [
            {
              "internalType": "string",
              "name": "name",
              "type": "string"
            },
            {
              "internalType": "uint256",
              "name": "val",
              "type": "uint256"
            }
          ],
          "internalType": "struct HealthSystem.OutputRecord[]",
          "name": "",
          "type": "tuple[]"
        }
      ],
      "payable": false,
      "stateMutability": "nonpayable",
      "type": "function"
    }
  ],
  "bytecode": "0x6080604052600160075560016009556001600b5534801561001f57600080fd5b506132828061002f6000396000f3fe608060405234801561001057600080fd5b506004361061014d5760003560e01c8063956762d8116100c3578063d2c601381161007c578063d2c60138146102f9578063dbde207d1461031d578063dd19a84b14610325578063e72da8b614610338578063ef7a4d8c1461034b578063f0d950901461035e5761014d565b8063956762d814610267578063975067461461027a578063a7d7dbcc1461028d578063a9bb0fa1146102ad578063aabbfce2146102ce578063b1131795146102f15761014d565b80631c151479116101155780631c151479146101f157806331b3bac514610206578063562a73641461020e5780635899798f1461022157806381204c8b146102345780638a74063a146102545761014d565b806306a55f37146101525780630d57ce41146101675780631855dd7a1461019757806318a231a9146101b75780631be6108b146101cc575b600080fd5b610165610160366004612a37565b610373565b005b61017a610175366004612a19565b610898565b60405161018e989796959493929190612f90565b60405180910390f35b6101aa6101a536600461296c565b610ae4565b60405161018e919061305e565b6101bf610b1e565b60405161018e9190612f6e565b6101df6101da366004612a19565b610d5d565b60405161018e96959493929190613117565b6101f9610f52565b60405161018e9190612f4c565b6101aa611190565b6101aa61021c36600461296c565b611196565b6101aa61022f366004612811565b6111d0565b610247610242366004612811565b6111ed565b60405161018e9190612f5d565b6101656102623660046128c7565b61162e565b610247610275366004612811565b611728565b61016561028836600461284d565b611b48565b6102a061029b3660046129d3565b611c20565b60405161018e9190612f7f565b6102c06102bb366004612a19565b611ce3565b60405161018e92919061302e565b6102e16102dc366004612a19565b611d96565b60405161018e949392919061306c565b6101aa611ef7565b61030c610307366004612a19565b611efd565b60405161018e9594939291906130b7565b6101aa6120ee565b6102a06103333660046129d3565b6120f4565b6102c0610346366004612a19565b61211c565b6101aa610359366004612811565b612129565b610366612146565b60405161018e9190612f3b565b600b80546001810190915585606061038a826122e7565b905060008160405161039c9190612f1a565b90815260200160405180910390205460001415610462576002816040516103c39190612f1a565b90815260405160209181900382019020805460018101808355600092835291839020875192936103fa939190920191880190612602565b50506001808260405161040d9190612f1a565b9081526020016040518091039020856040516104299190612f1a565b908152602001604051809103902081905550600160008260405161044d9190612f1a565b90815260405190819003602001902055610575565b6001816040516104729190612f1a565b90815260200160405180910390208460405161048e9190612f1a565b9081526020016040518091039020546000141561053257600180826040516104b69190612f1a565b9081526020016040518091039020856040516104d29190612f1a565b9081526020016040518091039020819055506002816040516104f49190612f1a565b908152604051602091819003820190208054600181018083556000928352918390208751929361052b939190920191880190612602565b5050610575565b6001816040516105429190612f1a565b90815260200160405180910390208460405161055e9190612f1a565b908152604051908190036020019020805460010190555b6003846040516105859190612f1a565b9081526020016040518091039020546000141561064c5760016003856040516105ae9190612f1a565b9081526020016040518091039020819055506005846040516105d09190612f1a565b9081526040516020918190038201902080546001810180835560009283529183902084519293610607939190920191850190612602565b5050600160048560405161061b9190612f1a565b9081526020016040518091039020826040516106379190612f1a565b90815260405190819003602001902055610760565b60048460405161065c9190612f1a565b9081526020016040518091039020816040516106789190612f1a565b9081526020016040518091039020546000141561071d5760016004856040516106a19190612f1a565b9081526020016040518091039020826040516106bd9190612f1a565b9081526020016040518091039020819055506005846040516106df9190612f1a565b9081526040516020918190038201902080546001810180835560009283529183902084519293610716939190920191850190612602565b5050610760565b60048460405161072d9190612f1a565b9081526020016040518091039020816040516107499190612f1a565b908152604051908190036020019020805460010190555b6040805160c08101825284815260208082018581529282018a8152606083018a8152608084018a905260a08401899052600a805460018101808355600092909252855160069091027fc65a7bb8d6351c1cf70c95a316cc6a92839c986682d98bc35f958f4883f9d2a8810191825596517fc65a7bb8d6351c1cf70c95a316cc6a92839c986682d98bc35f958f4883f9d2a988015592517fc65a7bb8d6351c1cf70c95a316cc6a92839c986682d98bc35f958f4883f9d2aa870155905180518d96929594610851937fc65a7bb8d6351c1cf70c95a316cc6a92839c986682d98bc35f958f4883f9d2ab01920190612602565b506080820151805161086d916004840191602090910190612602565b5060a08201518051610889916005840191602090910190612602565b50505050505050505050505050565b606060006060806060600060608060006108b18a612442565b9050600681815481106108c057fe5b906000526020600020906005020160000154600682815481106108df57fe5b9060005260206000209060050201600101600683815481106108fd57fe5b9060005260206000209060050201600201546006848154811061091c57fe5b6000918252602091829020604080518082018252600280825261125960f21b8287015282518084018452600c81526b50617469656e74206e616d6560a01b81880152885484516001821615610100026000190190911692909204601f8101889004880283018801909452838252919897919691959194600502909301600301929185918301828280156109f05780601f106109c5576101008083540402835291602001916109f0565b820191906000526020600020905b8154815290600101906020018083116109d357829003601f168201915b5050604080518082018252600d81526c088c2e8ca40decc4084d2e4e8d609b1b60208083019190915282518084018452600681526523b2b73232b960d11b818301528854845160026001831615610100026000190190921691909104601f8101849004840282018401909552848152979a509198979196919550909350849250830182828015610ac15780601f10610a9657610100808354040283529160200191610ac1565b820191906000526020600020905b815481529060010190602001808311610aa457829003601f168201915b505050505090509850985098509850985098509850985050919395975091939597565b8151602081840181018051600482529282019482019490942091909352815180830184018051928152908401929093019190912091525481565b60606006805480602002602001604051908101604052809291908181526020016000905b82821015610d5357838290600052602060002090600502016040518060a001604052908160008201548152602001600182018054600181600116156101000203166002900480601f016020809104026020016040519081016040528092919081815260200182805460018160011615610100020316600290048015610c085780601f10610bdd57610100808354040283529160200191610c08565b820191906000526020600020905b815481529060010190602001808311610beb57829003601f168201915b505050918352505060028281015460208084019190915260038401805460408051601f60001961010060018616150201909316959095049182018490048402850184018152818552909401939091830182828015610ca75780601f10610c7c57610100808354040283529160200191610ca7565b820191906000526020600020905b815481529060010190602001808311610c8a57829003601f168201915b505050918352505060048201805460408051602060026001851615610100026000190190941693909304601f8101849004840282018401909252818152938201939291830182828015610d3b5780601f10610d1057610100808354040283529160200191610d3b565b820191906000526020600020905b815481529060010190602001808311610d1e57829003601f168201915b50505050508152505081526020019060010190610b42565b5050505090505b90565b600a8181548110610d6a57fe5b9060005260206000209060060201600091509050806000015490806001015490806002015490806003018054600181600116156101000203166002900480601f016020809104026020016040519081016040528092919081815260200182805460018160011615610100020316600290048015610e285780601f10610dfd57610100808354040283529160200191610e28565b820191906000526020600020905b815481529060010190602001808311610e0b57829003601f168201915b5050505060048301805460408051602060026001851615610100026000190190941693909304601f8101849004840282018401909252818152949594935090830182828015610eb85780601f10610e8d57610100808354040283529160200191610eb8565b820191906000526020600020905b815481529060010190602001808311610e9b57829003601f168201915b5050505060058301805460408051602060026001851615610100026000190190941693909304601f8101849004840282018401909252818152949594935090830182828015610f485780601f10610f1d57610100808354040283529160200191610f48565b820191906000526020600020905b815481529060010190602001808311610f2b57829003601f168201915b5050505050905086565b6060600a805480602002602001604051908101604052809291908181526020016000905b82821015610d5357838290600052602060002090600602016040518060c0016040529081600082015481526020016001820154815260200160028201548152602001600382018054600181600116156101000203166002900480601f0160208091040260200160405190810160405280929190818152602001828054600181600116156101000203166002900480156110505780601f1061102557610100808354040283529160200191611050565b820191906000526020600020905b81548152906001019060200180831161103357829003601f168201915b505050918352505060048201805460408051602060026001851615610100026000190190941693909304601f81018490048402820184019092528181529382019392918301828280156110e45780601f106110b9576101008083540402835291602001916110e4565b820191906000526020600020905b8154815290600101906020018083116110c757829003601f168201915b505050918352505060058201805460408051602060026001851615610100026000190190941693909304601f81018490048402820184019092528181529382019392918301828280156111785780601f1061114d57610100808354040283529160200191611178565b820191906000526020600020905b81548152906001019060200180831161115b57829003601f168201915b50505050508152505081526020019060010190610f76565b60095481565b8151602081840181018051600182529282019482019490942091909352815180830184018051928152908401929093019190912091525481565b805160208183018101805160008252928201919093012091525481565b606060006111fc600c82612680565b50600061120a600d82612680565b5060005b60028360405161121e9190612f1a565b908152604051908190036020019020548110156113b35760606002846040516112479190612f1a565b9081526020016040518091039020828154811061126057fe5b600091825260209182902001805460408051601f60026000196101006001871615020190941693909304928301859004850281018501909152818152928301828280156112ee5780601f106112c3576101008083540402835291602001916112ee565b820191906000526020600020905b8154815290600101906020018083116112d157829003601f168201915b5050505050905060006001856040516113079190612f1a565b9081526020016040518091039020826040516113239190612f1a565b90815260408051918290036020908101832054838301909252848352828101829052600d8054600181018083556000929092528451805194965091949360029091027fd7b6990105719101dabeb77144f2a3385c8033acd3af97e9423a695e81ad1eb50192611396928492910190612602565b50602082015181600101555050505050808060010191505061120e565b506114b3600d805480602002602001604051908101604052809291908181526020016000905b8282101561149f5760008481526020908190206040805160028681029093018054600181161561010002600019011693909304601f81018590049094028101606090810183529181018481529093849284919084018282801561147d5780601f106114525761010080835404028352916020019161147d565b820191906000526020600020905b81548152906001019060200180831161146057829003601f168201915b50505050508152602001600182015481525050815260200190600101906113d9565b5050600d54600092506000190190506124d1565b600d5460005b600d5481101561153857600c600d826001850303815481106114d757fe5b600091825260208083208454600181810180885596865292909420600293840290910180549094840290910192611522928492869261010092821615929092026000190116046126ac565b50600191820154908201559190910190506114b9565b50600c805480602002602001604051908101604052809291908181526020016000905b828210156116215760008481526020908190206040805160028681029093018054600181161561010002600019011693909304601f8101859004909402810160609081018352918101848152909384928491908401828280156115ff5780601f106115d4576101008083540402835291602001916115ff565b820191906000526020600020905b8154815290600101906020018083116115e257829003601f168201915b505050505081526020016001820154815250508152602001906001019061155b565b505050509150505b919050565b6007546040805160a08101825282815260208082018881529282018790526060820186905260808201859052600680546001810180835560009290925283517ff652222313e28459528d920b65115c16c04f3efc82aaedc97be59f3f377c0d3f6005909202918201908155945180518a97969395946116d1937ff652222313e28459528d920b65115c16c04f3efc82aaedc97be59f3f377c0d4001920190612602565b5060408201516002820155606082015180516116f7916003840191602090910190612602565b5060808201518051611713916004840191602090910190612602565b50506007805460010190555050505050505050565b60606000611737600c82612680565b506000611745600d82612680565b5060005b6005836040516117599190612f1a565b908152604051908190036020019020548110156118ee5760606005846040516117829190612f1a565b9081526020016040518091039020828154811061179b57fe5b600091825260209182902001805460408051601f60026000196101006001871615020190941693909304928301859004850281018501909152818152928301828280156118295780601f106117fe57610100808354040283529160200191611829565b820191906000526020600020905b81548152906001019060200180831161180c57829003601f168201915b5050505050905060006004856040516118429190612f1a565b90815260200160405180910390208260405161185e9190612f1a565b90815260408051918290036020908101832054838301909252848352828101829052600d8054600181018083556000929092528451805194965091949360029091027fd7b6990105719101dabeb77144f2a3385c8033acd3af97e9423a695e81ad1eb501926118d1928492910190612602565b506020820151816001015550505050508080600101915050611749565b506119da600d805480602002602001604051908101604052809291908181526020016000905b8282101561149f5760008481526020908190206040805160028681029093018054600181161561010002600019011693909304601f8101859004909402810160609081018352918101848152909384928491908401828280156119b85780601f1061198d576101008083540402835291602001916119b8565b820191906000526020600020905b81548152906001019060200180831161199b57829003601f168201915b5050505050815260200160018201548152505081526020019060010190611914565b600d5460005b600d54811015611a5f57600c600d826001850303815481106119fe57fe5b600091825260208083208454600181810180885596865292909420600293840290910180549094840290910192611a49928492869261010092821615929092026000190116046126ac565b50600191820154908201559190910190506119e0565b50600c805480602002602001604051908101604052809291908181526020016000905b828210156116215760008481526020908190206040805160028681029093018054600181161561010002600019011693909304601f810185900490940281016060908101835291810184815290938492849190840182828015611b265780601f10611afb57610100808354040283529160200191611b26565b820191906000526020600020905b815481529060010190602001808311611b0957829003601f168201915b5050505050815260200160018201548152505081526020019060010190611a82565b6009805460018082019092556040805160808101825282815260208082018881529282018790526060820186905260088054958601808255600091909152825160049096027ff3f7a9fe364faab93b216da50a3214154f22a0a2b415b23a84c8169e8b636ee38101968755935180519596899692959093611bef937ff3f7a9fe364faab93b216da50a3214154f22a0a2b415b23a84c8169e8b636ee4909201920190612602565b506040820151600282015560608201518051611c15916003840191602090910190612602565b505050505050505050565b81516020818401810180516002825292820191850191909120919052805482908110611c4857fe5b600091825260209182902001805460408051601f60026000196101006001871615020190941693909304928301859004850281018501909152818152945090925090830182828015611cdb5780601f10611cb057610100808354040283529160200191611cdb565b820191906000526020600020905b815481529060010190602001808311611cbe57829003601f168201915b505050505081565b600c8181548110611cf057fe5b60009182526020918290206002918202018054604080516001831615610100026000190190921693909304601f810185900485028201850190935282815290935091839190830182828015611d865780601f10611d5b57610100808354040283529160200191611d86565b820191906000526020600020905b815481529060010190602001808311611d6957829003601f168201915b5050505050908060010154905082565b60088181548110611da357fe5b9060005260206000209060040201600091509050806000015490806001018054600181600116156101000203166002900480601f016020809104026020016040519081016040528092919081815260200182805460018160011615610100020316600290048015611e555780601f10611e2a57610100808354040283529160200191611e55565b820191906000526020600020905b815481529060010190602001808311611e3857829003601f168201915b505050506002838101546003850180546040805160206001841615610100026000190190931695909504601f810183900483028601830190915280855295969295929450909190830182828015611eed5780601f10611ec257610100808354040283529160200191611eed565b820191906000526020600020905b815481529060010190602001808311611ed057829003601f168201915b5050505050905084565b60075481565b60068181548110611f0a57fe5b9060005260206000209060050201600091509050806000015490806001018054600181600116156101000203166002900480601f016020809104026020016040519081016040528092919081815260200182805460018160011615610100020316600290048015611fbc5780601f10611f9157610100808354040283529160200191611fbc565b820191906000526020600020905b815481529060010190602001808311611f9f57829003601f168201915b505050506002838101546003850180546040805160206001841615610100026000190190931695909504601f8101839004830286018301909152808552959692959294509091908301828280156120545780601f1061202957610100808354040283529160200191612054565b820191906000526020600020905b81548152906001019060200180831161203757829003601f168201915b5050505060048301805460408051602060026001851615610100026000190190941693909304601f81018490048402820184019092528181529495949350908301828280156120e45780601f106120b9576101008083540402835291602001916120e4565b820191906000526020600020905b8154815290600101906020018083116120c757829003601f168201915b5050505050905085565b600b5481565b81516020818401810180516005825292820191850191909120919052805482908110611c4857fe5b600d8181548110611cf057fe5b805160208183018101805160038252928201919093012091525481565b60606008805480602002602001604051908101604052809291908181526020016000905b82821015610d53578382906000526020600020906004020160405180608001604052908160008201548152602001600182018054600181600116156101000203166002900480601f0160208091040260200160405190810160405280929190818152602001828054600181600116156101000203166002900480156122305780601f1061220557610100808354040283529160200191612230565b820191906000526020600020905b81548152906001019060200180831161221357829003601f168201915b505050918352505060028281015460208084019190915260038401805460408051601f600019610100600186161502019093169590950491820184900484028501840181528185529094019390918301828280156122cf5780601f106122a4576101008083540402835291602001916122cf565b820191906000526020600020905b8154815290600101906020018083116122b257829003601f168201915b5050505050815250508152602001906001019061216a565b606060005b60065481101561242057826040516020016123079190612f26565b604051602081830303815290604052805190602001206006828154811061232a57fe5b90600052602060002090600502016000015460405160200161234c9190612f26565b604051602081830303815290604052805190602001201415612418576006818154811061237557fe5b6000918252602091829020600460059092020101805460408051601f600260001961010060018716150201909416939093049283018590048502810185019091528181529283018282801561240b5780601f106123e05761010080835404028352916020019161240b565b820191906000526020600020905b8154815290600101906020018083116123ee57829003601f168201915b5050505050915050611629565b6001016122ec565b5060405162461bcd60e51b81526004016124399061304e565b60405180910390fd5b6000805b60065481101561242057826040516020016124619190612f26565b604051602081830303815290604052805190602001206006828154811061248457fe5b9060005260206000209060050201600001546040516020016124a69190612f26565b6040516020818303038152906040528051906020012014156124c9579050611629565b600101612446565b8181808214156124e25750506125fd565b6000856002868603058601815181106124f757fe5b60200260200101516020015190505b8183136125d3575b8086848151811061251b57fe5b60200260200101516020015110156125385760019092019161250e565b85828151811061254457fe5b6020026020010151602001518110156125635760001990910190612538565b8183136125ce5785828151811061257657fe5b602002602001015186848151811061258a57fe5b602002602001015187858151811061259e57fe5b602002602001018885815181106125b157fe5b602090810291909101019190915252600190920191600019909101905b612506565b818512156125e6576125e68686846124d1565b838312156125f9576125f98684866124d1565b5050505b505050565b828054600181600116156101000203166002900490600052602060002090601f016020900481019282601f1061264357805160ff1916838001178555612670565b82800160010185558215612670579182015b82811115612670578251825591602001919060010190612655565b5061267c929150612721565b5090565b8154818355818111156125fd576002028160020283600052602060002091820191016125fd919061273b565b828054600181600116156101000203166002900490600052602060002090601f016020900481019282601f106126e55780548555612670565b8280016001018555821561267057600052602060002091601f016020900482015b82811115612670578254825591600101919060010190612706565b610d5a91905b8082111561267c5760008155600101612727565b610d5a91905b8082111561267c5760006127558282612765565b5060006001820155600201612741565b50805460018160011615610100020316600290046000825580601f1061278b57506127a9565b601f0160209004906000526020600020908101906127a99190612721565b50565b600082601f8301126127bd57600080fd5b81356127d06127cb826131ab565b613185565b915080825260208301602083018583830111156127ec57600080fd5b6127f78382846131e5565b50505092915050565b803561280b8161322b565b92915050565b60006020828403121561282357600080fd5b81356001600160401b0381111561283957600080fd5b612845848285016127ac565b949350505050565b60008060006060848603121561286257600080fd5b83356001600160401b0381111561287857600080fd5b612884868287016127ac565b935050602061289586828701612800565b92505060408401356001600160401b038111156128b157600080fd5b6128bd868287016127ac565b9150509250925092565b600080600080608085870312156128dd57600080fd5b84356001600160401b038111156128f357600080fd5b6128ff878288016127ac565b945050602061291087828801612800565b93505060408501356001600160401b0381111561292c57600080fd5b612938878288016127ac565b92505060608501356001600160401b0381111561295457600080fd5b612960878288016127ac565b91505092959194509250565b6000806040838503121561297f57600080fd5b82356001600160401b0381111561299557600080fd5b6129a1858286016127ac565b92505060208301356001600160401b038111156129bd57600080fd5b6129c9858286016127ac565b9150509250929050565b600080604083850312156129e657600080fd5b82356001600160401b038111156129fc57600080fd5b612a08858286016127ac565b92505060206129c985828601612800565b600060208284031215612a2b57600080fd5b60006128458484612800565b600080600080600060a08688031215612a4f57600080fd5b6000612a5b8888612800565b9550506020612a6c88828901612800565b94505060408601356001600160401b03811115612a8857600080fd5b612a94888289016127ac565b93505060608601356001600160401b03811115612ab057600080fd5b612abc888289016127ac565b92505060808601356001600160401b03811115612ad857600080fd5b612ae4888289016127ac565b9150509295509295909350565b6000612afd8383612d6a565b9392505050565b6000612afd8383612dcc565b6000612afd8383612e52565b6000612afd8383612e87565b6000612b33826131d8565b612b3d81856131dc565b935083602082028501612b4f856131d2565b8060005b85811015612b895784840389528151612b6c8582612af1565b9450612b77836131d2565b60209a909a0199925050600101612b53565b5091979650505050505050565b6000612ba1826131d8565b612bab81856131dc565b935083602082028501612bbd856131d2565b8060005b85811015612b895784840389528151612bda8582612b04565b9450612be5836131d2565b60209a909a0199925050600101612bc1565b6000612c02826131d8565b612c0c81856131dc565b935083602082028501612c1e856131d2565b8060005b85811015612b895784840389528151612c3b8582612b10565b9450612c46836131d2565b60209a909a0199925050600101612c22565b6000612c63826131d8565b612c6d81856131dc565b935083602082028501612c7f856131d2565b8060005b85811015612b895784840389528151612c9c8582612b1c565b9450612ca7836131d2565b60209a909a0199925050600101612c83565b6000612cc4826131d8565b612cce81856131dc565b9350612cde8185602086016131f1565b612ce781613221565b9093019392505050565b6000612cfc826131d8565b612d068185611629565b9350612d168185602086016131f1565b9290920192915050565b6000612d2d6028836131dc565b7f5468697320737461746520646f6573206e6f7420657869737420696e20626c6f815267636b636861696e2160c01b602082015260400192915050565b80516000906080840190612d7e8582612efa565b5060208301518482036020860152612d968282612cb9565b9150506040830151612dab6040860182612efa565b5060608301518482036060860152612dc38282612cb9565b95945050505050565b805160009060c0840190612de08582612efa565b506020830151612df36020860182612efa565b506040830151612e066040860182612efa565b5060608301518482036060860152612e1e8282612cb9565b91505060808301518482036080860152612e388282612cb9565b91505060a083015184820360a0860152612dc38282612cb9565b8051604080845260009190840190612e6a8282612cb9565b9150506020830151612e7f6020860182612efa565b509392505050565b805160009060a0840190612e9b8582612efa565b5060208301518482036020860152612eb38282612cb9565b9150506040830151612ec86040860182612efa565b5060608301518482036060860152612ee08282612cb9565b91505060808301518482036080860152612dc38282612cb9565b612f0381610d5a565b82525050565b612f03612f1582610d5a565b610d5a565b6000612afd8284612cf1565b6000612f328284612f09565b50602001919050565b60208082528101612afd8184612b28565b60208082528101612afd8184612b96565b60208082528101612afd8184612bf7565b60208082528101612afd8184612c58565b60208082528101612afd8184612cb9565b6101008082528101612fa2818b612cb9565b9050612fb1602083018a612efa565b8181036040830152612fc38189612cb9565b90508181036060830152612fd78188612cb9565b90508181036080830152612feb8187612cb9565b9050612ffa60a0830186612efa565b81810360c083015261300c8185612cb9565b905081810360e08301526130208184612cb9565b9a9950505050505050505050565b6040808252810161303f8185612cb9565b9050612afd6020830184612efa565b6020808252810161280b81612d20565b6020810161280b8284612efa565b6080810161307a8287612efa565b818103602083015261308c8186612cb9565b905061309b6040830185612efa565b81810360608301526130ad8184612cb9565b9695505050505050565b60a081016130c58288612efa565b81810360208301526130d78187612cb9565b90506130e66040830186612efa565b81810360608301526130f88185612cb9565b9050818103608083015261310c8184612cb9565b979650505050505050565b60c081016131258289612efa565b6131326020830188612efa565b61313f6040830187612efa565b81810360608301526131518186612cb9565b905081810360808301526131658185612cb9565b905081810360a08301526131798184612cb9565b98975050505050505050565b6040518181016001600160401b03811182821017156131a357600080fd5b604052919050565b60006001600160401b038211156131c157600080fd5b506020601f91909101601f19160190565b60200190565b5190565b90815260200190565b82818337506000910152565b60005b8381101561320c5781810151838201526020016131f4565b8381111561321b576000848401525b50505050565b601f01601f191690565b61323481610d5a565b81146127a957600080fdfea365627a7a7231582019abec8fd8b84b744f175e3ec5083771726bf598121cf5d8f48d7f4917fa0f1d6c6578706572696d656e74616cf564736f6c63430005100040",
  "source": "pragma solidity ^0.5.0;\r\npragma experimental ABIEncoderV2;\r\ncontract HealthSystem{\r\n    struct Address{\r\n        string streetName;\r\n        string cityName;\r\n        uint pinCode;\r\n        string stateName;\r\n        string countryName;\r\n    }\r\n    \r\n    struct Patient{\r\n        uint patientId;\r\n        string name;\r\n        uint yearOfBirth;\r\n        string gender;\r\n        string city;\r\n        // Address patientAddress;\r\n        // uint[] hrIds ;\r\n    }\r\n    \r\n    struct Doctor{\r\n        uint doctorId;\r\n        string name;\r\n        uint licenseNo;\r\n        string specialization;\r\n    }\r\n    \r\n    struct HealthRecord{\r\n        uint healthRecordId;\r\n        uint patientId;\r\n        uint doctorId;\r\n        string prescription;\r\n        string feedBack;\r\n        string disease;\r\n        // we further need to add test reports and etc etc\r\n    }\r\n    \r\n    struct OutputRecord{\r\n        string name;\r\n        uint val;\r\n    }\r\n    \r\n    //start\r\n    mapping(string => uint) public isCityPresent;\r\n    mapping(string => mapping(string => uint) ) public cityDiseaseMp;\r\n    mapping(string => string[]) public cityDiseases;\r\n    \r\n    mapping(string => uint) public isDiseasePresent;\r\n    mapping(string => mapping(string => uint) ) public diseaseCityMp;\r\n    mapping(string => string[]) public diseaseInCities;\r\n    \r\n    // patient functions\r\n    Patient[] public Patients_list;\r\n    uint public nextPatientId=1;\r\n\r\n    function newPatientReg(string memory name, uint yearOfBirth, string memory gender, string memory city) public{\r\n        uint _yearOfBirth = yearOfBirth;\r\n        uint _id = nextPatientId;\r\n        Patients_list.push(Patient(_id, name, _yearOfBirth, gender, city));\r\n        nextPatientId++;\r\n    }\r\n    \r\n    function searchPatient(uint patientId) view public returns(string memory,uint, string memory,string memory, string memory,uint, string memory,string memory){\r\n        uint i=find_id(patientId);\r\n        return(\"Id\", Patients_list[i].patientId, \"Patient name\", Patients_list[i].name,\"Date of Birth\", Patients_list[i].yearOfBirth, \"Gender\", Patients_list[i].gender);\r\n    }\r\n    \r\n    function find_id(uint patientId)view internal returns(uint){\r\n        for(uint i=0;i<Patients_list.length;i++){\r\n            if(keccak256(abi.encodePacked(Patients_list[i].patientId))== keccak256(abi.encodePacked(patientId)))\r\n            {\r\n                return i;\r\n            }\r\n        }\r\n        revert('This state does not exist in blockchain!');\r\n    }\r\n    \r\n    function find_city(uint patientId) view internal returns(string memory){\r\n        for(uint i=0;i<Patients_list.length;i++){\r\n            if(keccak256(abi.encodePacked(Patients_list[i].patientId))== keccak256(abi.encodePacked(patientId)))\r\n            {\r\n                return Patients_list[i].city;\r\n            }\r\n        }\r\n        revert('This state does not exist in blockchain!');\r\n    }\r\n    \r\n    function isPresent(string memory name)view internal returns(uint){\r\n        uint k=0;\r\n        for(uint i=0;i<Patients_list.length;i++){\r\n            if(keccak256(abi.encodePacked(Patients_list[i].name))==keccak256(abi.encodePacked(name)))\r\n            {\r\n                 k=1;\r\n            }\r\n        }\r\n        return k;\r\n    }\r\n    \r\n    function getAllPatients() view public returns(Patient[] memory){\r\n        return Patients_list;\r\n    }\r\n    \r\n    \r\n    // doctor functions\r\n    Doctor[] public Doctors_list;\r\n    uint public nextDoctorId=1;\r\n    \r\n    function newDoctorReg(string memory name, uint licenseNo, string memory specialization) public{\r\n        uint _id = nextDoctorId;\r\n        nextDoctorId++;\r\n        uint _licenseNo = licenseNo;\r\n        Doctors_list.push(Doctor(_id, name, _licenseNo, specialization));\r\n    }\r\n    \r\n    function getAllDoctors() view public returns(Doctor[] memory){\r\n        return Doctors_list;\r\n    }\r\n    \r\n    // Health Record functions\r\n    HealthRecord[] public HealthRecords_list;\r\n    uint public nextRecordId=1;\r\n    \r\n    \r\n    function newRecordReg(uint patientId, uint doctorId, string memory prescription, string memory feedBack, string memory disease) public{\r\n        uint _id = nextRecordId;\r\n        nextRecordId++;\r\n        uint _patientId = patientId;\r\n        string memory city = find_city(patientId); // we need to write a function to query the city\r\n        if(isCityPresent[city] == 0){\r\n            cityDiseases[city].push(disease);\r\n            cityDiseaseMp[city][disease] = 1;\r\n            isCityPresent[city] = 1;\r\n        }else{\r\n            if(cityDiseaseMp[city][disease] == 0){\r\n                cityDiseaseMp[city][disease] = 1;\r\n                cityDiseases[city].push(disease);\r\n            }else{\r\n                cityDiseaseMp[city][disease]++;\r\n            }\r\n        }\r\n        \r\n        if(isDiseasePresent[disease] == 0){\r\n            isDiseasePresent[disease] = 1;\r\n            diseaseInCities[disease].push(city);\r\n            diseaseCityMp[disease][city] = 1;\r\n        }else{\r\n            if(diseaseCityMp[disease][city] == 0){\r\n                diseaseCityMp[disease][city] = 1;\r\n                diseaseInCities[disease].push(city);\r\n            }else{\r\n                diseaseCityMp[disease][city]++;\r\n            }\r\n        }\r\n        \r\n        uint _doctorId = doctorId;\r\n        HealthRecords_list.push(HealthRecord(_id, _patientId, _doctorId, prescription, feedBack, disease));\r\n    }\r\n    \r\n    function getAllHealthRecords() view public returns(HealthRecord[] memory){\r\n        return HealthRecords_list;\r\n    }\r\n    \r\n    function quickSort(OutputRecord[] memory arr, int left, int right) internal{\r\n        int i = left;\r\n        int j = right;\r\n        if(i==j) return;\r\n        uint pivot = arr[uint(left + (right - left) / 2)].val;\r\n        while (i <= j) {\r\n            while (arr[uint(i)].val < pivot) i++;\r\n            while (pivot < arr[uint(j)].val) j--;\r\n            if (i <= j) {\r\n                (arr[uint(i)], arr[uint(j)]) = (arr[uint(j)], arr[uint(i)]);\r\n                i++;\r\n                j--;\r\n            }\r\n        }\r\n        if (left < j)\r\n            quickSort(arr, left, j);\r\n        if (i < right)\r\n            quickSort(arr, i, right);\r\n    }\r\n    \r\n    OutputRecord[] public Result;\r\n    OutputRecord[] public tmp;\r\n    \r\n    function getDiseaseInCity(string memory city) public returns(OutputRecord[] memory){\r\n        Result.length = 0;\r\n        tmp.length = 0;\r\n        for(uint i=0; i<cityDiseases[city].length; i++){\r\n            string memory curDisease = cityDiseases[city][i];\r\n            uint curVal = cityDiseaseMp[city][curDisease];\r\n            tmp.push(OutputRecord(curDisease, curVal));\r\n        }\r\n        quickSort(tmp, int(0), int(tmp.length - 1));\r\n        uint len = tmp.length;\r\n        for(uint i=0; i<tmp.length; i++){\r\n            Result.push(tmp[len - 1 - i]);\r\n        }\r\n        return Result;\r\n    }\r\n    \r\n    function getCityByDisease(string memory disease) public returns(OutputRecord[] memory){\r\n        Result.length = 0;\r\n        tmp.length = 0;\r\n        for(uint i=0; i<diseaseInCities[disease].length; i++){\r\n            string memory curCity = diseaseInCities[disease][i];\r\n            uint curVal = diseaseCityMp[disease][curCity];\r\n            tmp.push(OutputRecord(curCity, curVal));\r\n        }\r\n        quickSort(tmp, int(0), int(tmp.length - 1));\r\n        uint len = tmp.length;\r\n        for(uint i=0; i<tmp.length; i++){\r\n            Result.push(tmp[len - 1 - i]);\r\n        }\r\n        return Result;\r\n    }\r\n    \r\n    \r\n}",
  "sourcePath": "G:\\Repo\\healthCareSystem\\contracts\\HealthSystem.sol",
  "compiler": {
    "name": "solc",
    "version": "0.5.16+commit.9c3226ce.Emscripten.clang"
  },
  "schemaVersion": "3.4.3",
  "updatedAt": "2021-11-16T08:04:42.201Z",
  "networkType": "ethereum",
  "devdoc": {
    "methods": {}
  },
  "userdoc": {
    "methods": {}
  }
}