{
  "contractName": "HealthSystem",
  "abi": [
    {
      "constant": true,
      "inputs": [
        {
          "internalType": "uint256",
          "name": "",
          "type": "uint256"
        }
      ],
      "name": "Doctors_list",
      "outputs": [
        {
          "internalType": "uint256",
          "name": "doctorId",
          "type": "uint256"
        },
        {
          "internalType": "string",
          "name": "name",
          "type": "string"
        },
        {
          "internalType": "uint256",
          "name": "licenseNo",
          "type": "uint256"
        },
        {
          "internalType": "string",
          "name": "specialization",
          "type": "string"
        }
      ],
      "payable": false,
      "stateMutability": "view",
      "type": "function"
    },
    {
      "constant": true,
      "inputs": [
        {
          "internalType": "uint256",
          "name": "",
          "type": "uint256"
        }
      ],
      "name": "HealthRecords_list",
      "outputs": [
        {
          "internalType": "uint256",
          "name": "healthRecordId",
          "type": "uint256"
        },
        {
          "internalType": "uint256",
          "name": "patientId",
          "type": "uint256"
        },
        {
          "internalType": "uint256",
          "name": "doctorId",
          "type": "uint256"
        },
        {
          "internalType": "string",
          "name": "prescription",
          "type": "string"
        },
        {
          "internalType": "string",
          "name": "feedBack",
          "type": "string"
        },
        {
          "internalType": "string",
          "name": "disease",
          "type": "string"
        }
      ],
      "payable": false,
      "stateMutability": "view",
      "type": "function"
    },
    {
      "constant": true,
      "inputs": [
        {
          "internalType": "uint256",
          "name": "",
          "type": "uint256"
        }
      ],
      "name": "Patients_list",
      "outputs": [
        {
          "internalType": "uint256",
          "name": "patientId",
          "type": "uint256"
        },
        {
          "internalType": "string",
          "name": "name",
          "type": "string"
        },
        {
          "internalType": "uint256",
          "name": "yearOfBirth",
          "type": "uint256"
        },
        {
          "internalType": "string",
          "name": "gender",
          "type": "string"
        },
        {
          "internalType": "string",
          "name": "city",
          "type": "string"
        }
      ],
      "payable": false,
      "stateMutability": "view",
      "type": "function"
    },
    {
      "constant": true,
      "inputs": [
        {
          "internalType": "uint256",
          "name": "",
          "type": "uint256"
        }
      ],
      "name": "Result",
      "outputs": [
        {
          "internalType": "string",
          "name": "name",
          "type": "string"
        },
        {
          "internalType": "uint256",
          "name": "val",
          "type": "uint256"
        }
      ],
      "payable": false,
      "stateMutability": "view",
      "type": "function"
    },
    {
      "constant": true,
      "inputs": [
        {
          "internalType": "string",
          "name": "",
          "type": "string"
        },
        {
          "internalType": "string",
          "name": "",
          "type": "string"
        }
      ],
      "name": "cityDiseaseMp",
      "outputs": [
        {
          "internalType": "uint256",
          "name": "",
          "type": "uint256"
        }
      ],
      "payable": false,
      "stateMutability": "view",
      "type": "function"
    },
    {
      "constant": true,
      "inputs": [
        {
          "internalType": "string",
          "name": "",
          "type": "string"
        },
        {
          "internalType": "uint256",
          "name": "",
          "type": "uint256"
        }
      ],
      "name": "cityDiseases",
      "outputs": [
        {
          "internalType": "string",
          "name": "",
          "type": "string"
        }
      ],
      "payable": false,
      "stateMutability": "view",
      "type": "function"
    },
    {
      "constant": true,
      "inputs": [
        {
          "internalType": "string",
          "name": "",
          "type": "string"
        },
        {
          "internalType": "string",
          "name": "",
          "type": "string"
        }
      ],
      "name": "diseaseCityMp",
      "outputs": [
        {
          "internalType": "uint256",
          "name": "",
          "type": "uint256"
        }
      ],
      "payable": false,
      "stateMutability": "view",
      "type": "function"
    },
    {
      "constant": true,
      "inputs": [
        {
          "internalType": "string",
          "name": "",
          "type": "string"
        },
        {
          "internalType": "uint256",
          "name": "",
          "type": "uint256"
        }
      ],
      "name": "diseaseInCities",
      "outputs": [
        {
          "internalType": "string",
          "name": "",
          "type": "string"
        }
      ],
      "payable": false,
      "stateMutability": "view",
      "type": "function"
    },
    {
      "constant": true,
      "inputs": [
        {
          "internalType": "string",
          "name": "",
          "type": "string"
        }
      ],
      "name": "isCityPresent",
      "outputs": [
        {
          "internalType": "uint256",
          "name": "",
          "type": "uint256"
        }
      ],
      "payable": false,
      "stateMutability": "view",
      "type": "function"
    },
    {
      "constant": true,
      "inputs": [
        {
          "internalType": "string",
          "name": "",
          "type": "string"
        }
      ],
      "name": "isDiseasePresent",
      "outputs": [
        {
          "internalType": "uint256",
          "name": "",
          "type": "uint256"
        }
      ],
      "payable": false,
      "stateMutability": "view",
      "type": "function"
    },
    {
      "constant": true,
      "inputs": [],
      "name": "nextDoctorId",
      "outputs": [
        {
          "internalType": "uint256",
          "name": "",
          "type": "uint256"
        }
      ],
      "payable": false,
      "stateMutability": "view",
      "type": "function"
    },
    {
      "constant": true,
      "inputs": [],
      "name": "nextPatientId",
      "outputs": [
        {
          "internalType": "uint256",
          "name": "",
          "type": "uint256"
        }
      ],
      "payable": false,
      "stateMutability": "view",
      "type": "function"
    },
    {
      "constant": true,
      "inputs": [],
      "name": "nextRecordId",
      "outputs": [
        {
          "internalType": "uint256",
          "name": "",
          "type": "uint256"
        }
      ],
      "payable": false,
      "stateMutability": "view",
      "type": "function"
    },
    {
      "constant": true,
      "inputs": [
        {
          "internalType": "uint256",
          "name": "",
          "type": "uint256"
        }
      ],
      "name": "tmp",
      "outputs": [
        {
          "internalType": "string",
          "name": "name",
          "type": "string"
        },
        {
          "internalType": "uint256",
          "name": "val",
          "type": "uint256"
        }
      ],
      "payable": false,
      "stateMutability": "view",
      "type": "function"
    },
    {
      "constant": false,
      "inputs": [
        {
          "internalType": "string",
          "name": "name",
          "type": "string"
        },
        {
          "internalType": "uint256",
          "name": "yearOfBirth",
          "type": "uint256"
        },
        {
          "internalType": "string",
          "name": "gender",
          "type": "string"
        },
        {
          "internalType": "string",
          "name": "city",
          "type": "string"
        }
      ],
      "name": "newPatientReg",
      "outputs": [],
      "payable": false,
      "stateMutability": "nonpayable",
      "type": "function"
    },
    {
      "constant": true,
      "inputs": [
        {
          "internalType": "uint256",
          "name": "patientId",
          "type": "uint256"
        }
      ],
      "name": "searchPatient",
      "outputs": [
        {
          "internalType": "string",
          "name": "",
          "type": "string"
        },
        {
          "internalType": "uint256",
          "name": "",
          "type": "uint256"
        },
        {
          "internalType": "string",
          "name": "",
          "type": "string"
        },
        {
          "internalType": "string",
          "name": "",
          "type": "string"
        },
        {
          "internalType": "string",
          "name": "",
          "type": "string"
        },
        {
          "internalType": "uint256",
          "name": "",
          "type": "uint256"
        },
        {
          "internalType": "string",
          "name": "",
          "type": "string"
        },
        {
          "internalType": "string",
          "name": "",
          "type": "string"
        }
      ],
      "payable": false,
      "stateMutability": "view",
      "type": "function"
    },
    {
      "constant": false,
      "inputs": [
        {
          "internalType": "string",
          "name": "name",
          "type": "string"
        },
        {
          "internalType": "uint256",
          "name": "licenseNo",
          "type": "uint256"
        },
        {
          "internalType": "string",
          "name": "specialization",
          "type": "string"
        }
      ],
      "name": "newDoctorReg",
      "outputs": [],
      "payable": false,
      "stateMutability": "nonpayable",
      "type": "function"
    },
    {
      "constant": false,
      "inputs": [
        {
          "internalType": "uint256",
          "name": "patientId",
          "type": "uint256"
        },
        {
          "internalType": "uint256",
          "name": "doctorId",
          "type": "uint256"
        },
        {
          "internalType": "string",
          "name": "prescription",
          "type": "string"
        },
        {
          "internalType": "string",
          "name": "feedBack",
          "type": "string"
        },
        {
          "internalType": "string",
          "name": "disease",
          "type": "string"
        }
      ],
      "name": "newRecordReg",
      "outputs": [],
      "payable": false,
      "stateMutability": "nonpayable",
      "type": "function"
    },
    {
      "constant": false,
      "inputs": [
        {
          "internalType": "string",
          "name": "city",
          "type": "string"
        }
      ],
      "name": "getDiseaseInCity",
      "outputs": [
        {
          "components": [
            {
              "internalType": "string",
              "name": "name",
              "type": "string"
            },
            {
              "internalType": "uint256",
              "name": "val",
              "type": "uint256"
            }
          ],
          "internalType": "struct HealthSystem.OutputRecord[]",
          "name": "",
          "type": "tuple[]"
        }
      ],
      "payable": false,
      "stateMutability": "nonpayable",
      "type": "function"
    },
    {
      "constant": false,
      "inputs": [
        {
          "internalType": "string",
          "name": "disease",
          "type": "string"
        }
      ],
      "name": "getCityByDisease",
      "outputs": [
        {
          "components": [
            {
              "internalType": "string",
              "name": "name",
              "type": "string"
            },
            {
              "internalType": "uint256",
              "name": "val",
              "type": "uint256"
            }
          ],
          "internalType": "struct HealthSystem.OutputRecord[]",
          "name": "",
          "type": "tuple[]"
        }
      ],
      "payable": false,
      "stateMutability": "nonpayable",
      "type": "function"
    }
  ],
  "bytecode": "0x6080604052600160075560016009556001600b5534801561001f57600080fd5b506129328061002f6000396000f3fe608060405234801561001057600080fd5b506004361061012c5760003560e01c806397506746116100ad578063d2c6013811610071578063d2c60138146102ae578063dbde207d146102d2578063dd19a84b146102da578063e72da8b6146102ed578063ef7a4d8c146103005761012c565b8063975067461461022f578063a7d7dbcc14610242578063a9bb0fa114610262578063aabbfce214610283578063b1131795146102a65761012c565b8063562a7364116100f4578063562a7364146101c35780635899798f146101d657806381204c8b146101e95780638a74063a14610209578063956762d81461021c5761012c565b806306a55f37146101315780630d57ce41146101465780631855dd7a146101765780631be6108b1461019657806331b3bac5146101bb575b600080fd5b61014461013f3660046123bc565b610313565b005b61015961015436600461239e565b610838565b60405161016d989796959493929190612640565b60405180910390f35b6101896101843660046122f1565b610a84565b60405161016d919061270e565b6101a96101a436600461239e565b610abe565b60405161016d969594939291906127c7565b610189610cb3565b6101896101d13660046122f1565b610cb9565b6101896101e4366004612196565b610cf3565b6101fc6101f7366004612196565b610d10565b60405161016d919061261e565b61014461021736600461224c565b611151565b6101fc61022a366004612196565b61124b565b61014461023d3660046121d2565b61166b565b610255610250366004612358565b611743565b60405161016d919061262f565b61027561027036600461239e565b611806565b60405161016d9291906126de565b61029661029136600461239e565b6118b9565b60405161016d949392919061271c565b610189611a1a565b6102c16102bc36600461239e565b611a20565b60405161016d959493929190612767565b610189611c11565b6102556102e8366004612358565b611c17565b6102756102fb36600461239e565b611c3f565b61018961030e366004612196565b611c4c565b600b80546001810190915585606061032a82611c69565b905060008160405161033c91906125fd565b908152602001604051809103902054600014156104025760028160405161036391906125fd565b908152604051602091819003820190208054600181018083556000928352918390208751929361039a939190920191880190611f84565b5050600180826040516103ad91906125fd565b9081526020016040518091039020856040516103c991906125fd565b90815260200160405180910390208190555060016000826040516103ed91906125fd565b90815260405190819003602001902055610515565b60018160405161041291906125fd565b90815260200160405180910390208460405161042e91906125fd565b908152602001604051809103902054600014156104d2576001808260405161045691906125fd565b90815260200160405180910390208560405161047291906125fd565b90815260200160405180910390208190555060028160405161049491906125fd565b90815260405160209181900382019020805460018101808355600092835291839020875192936104cb939190920191880190611f84565b5050610515565b6001816040516104e291906125fd565b9081526020016040518091039020846040516104fe91906125fd565b908152604051908190036020019020805460010190555b60038460405161052591906125fd565b908152602001604051809103902054600014156105ec57600160038560405161054e91906125fd565b90815260200160405180910390208190555060058460405161057091906125fd565b90815260405160209181900382019020805460018101808355600092835291839020845192936105a7939190920191850190611f84565b505060016004856040516105bb91906125fd565b9081526020016040518091039020826040516105d791906125fd565b90815260405190819003602001902055610700565b6004846040516105fc91906125fd565b90815260200160405180910390208160405161061891906125fd565b908152602001604051809103902054600014156106bd57600160048560405161064191906125fd565b90815260200160405180910390208260405161065d91906125fd565b90815260200160405180910390208190555060058460405161067f91906125fd565b90815260405160209181900382019020805460018101808355600092835291839020845192936106b6939190920191850190611f84565b5050610700565b6004846040516106cd91906125fd565b9081526020016040518091039020816040516106e991906125fd565b908152604051908190036020019020805460010190555b6040805160c08101825284815260208082018581529282018a8152606083018a8152608084018a905260a08401899052600a805460018101808355600092909252855160069091027fc65a7bb8d6351c1cf70c95a316cc6a92839c986682d98bc35f958f4883f9d2a8810191825596517fc65a7bb8d6351c1cf70c95a316cc6a92839c986682d98bc35f958f4883f9d2a988015592517fc65a7bb8d6351c1cf70c95a316cc6a92839c986682d98bc35f958f4883f9d2aa870155905180518d969295946107f1937fc65a7bb8d6351c1cf70c95a316cc6a92839c986682d98bc35f958f4883f9d2ab01920190611f84565b506080820151805161080d916004840191602090910190611f84565b5060a08201518051610829916005840191602090910190611f84565b50505050505050505050505050565b606060006060806060600060608060006108518a611dc4565b90506006818154811061086057fe5b9060005260206000209060050201600001546006828154811061087f57fe5b90600052602060002090600502016001016006838154811061089d57fe5b906000526020600020906005020160020154600684815481106108bc57fe5b6000918252602091829020604080518082018252600280825261125960f21b8287015282518084018452600c81526b50617469656e74206e616d6560a01b81880152885484516001821615610100026000190190911692909204601f8101889004880283018801909452838252919897919691959194600502909301600301929185918301828280156109905780601f1061096557610100808354040283529160200191610990565b820191906000526020600020905b81548152906001019060200180831161097357829003601f168201915b5050604080518082018252600d81526c088c2e8ca40decc4084d2e4e8d609b1b60208083019190915282518084018452600681526523b2b73232b960d11b818301528854845160026001831615610100026000190190921691909104601f8101849004840282018401909552848152979a509198979196919550909350849250830182828015610a615780601f10610a3657610100808354040283529160200191610a61565b820191906000526020600020905b815481529060010190602001808311610a4457829003601f168201915b505050505090509850985098509850985098509850985050919395975091939597565b8151602081840181018051600482529282019482019490942091909352815180830184018051928152908401929093019190912091525481565b600a8181548110610acb57fe5b9060005260206000209060060201600091509050806000015490806001015490806002015490806003018054600181600116156101000203166002900480601f016020809104026020016040519081016040528092919081815260200182805460018160011615610100020316600290048015610b895780601f10610b5e57610100808354040283529160200191610b89565b820191906000526020600020905b815481529060010190602001808311610b6c57829003601f168201915b5050505060048301805460408051602060026001851615610100026000190190941693909304601f8101849004840282018401909252818152949594935090830182828015610c195780601f10610bee57610100808354040283529160200191610c19565b820191906000526020600020905b815481529060010190602001808311610bfc57829003601f168201915b5050505060058301805460408051602060026001851615610100026000190190941693909304601f8101849004840282018401909252818152949594935090830182828015610ca95780601f10610c7e57610100808354040283529160200191610ca9565b820191906000526020600020905b815481529060010190602001808311610c8c57829003601f168201915b5050505050905086565b60095481565b8151602081840181018051600182529282019482019490942091909352815180830184018051928152908401929093019190912091525481565b805160208183018101805160008252928201919093012091525481565b60606000610d1f600c82612002565b506000610d2d600d82612002565b5060005b600283604051610d4191906125fd565b90815260405190819003602001902054811015610ed6576060600284604051610d6a91906125fd565b90815260200160405180910390208281548110610d8357fe5b600091825260209182902001805460408051601f6002600019610100600187161502019094169390930492830185900485028101850190915281815292830182828015610e115780601f10610de657610100808354040283529160200191610e11565b820191906000526020600020905b815481529060010190602001808311610df457829003601f168201915b505050505090506000600185604051610e2a91906125fd565b908152602001604051809103902082604051610e4691906125fd565b90815260408051918290036020908101832054838301909252848352828101829052600d8054600181018083556000929092528451805194965091949360029091027fd7b6990105719101dabeb77144f2a3385c8033acd3af97e9423a695e81ad1eb50192610eb9928492910190611f84565b506020820151816001015550505050508080600101915050610d31565b50610fd6600d805480602002602001604051908101604052809291908181526020016000905b82821015610fc25760008481526020908190206040805160028681029093018054600181161561010002600019011693909304601f810185900490940281016060908101835291810184815290938492849190840182828015610fa05780601f10610f7557610100808354040283529160200191610fa0565b820191906000526020600020905b815481529060010190602001808311610f8357829003601f168201915b5050505050815260200160018201548152505081526020019060010190610efc565b5050600d5460009250600019019050611e53565b600d5460005b600d5481101561105b57600c600d82600185030381548110610ffa57fe5b6000918252602080832084546001818101808855968652929094206002938402909101805490948402909101926110459284928692610100928216159290920260001901160461202e565b5060019182015490820155919091019050610fdc565b50600c805480602002602001604051908101604052809291908181526020016000905b828210156111445760008481526020908190206040805160028681029093018054600181161561010002600019011693909304601f8101859004909402810160609081018352918101848152909384928491908401828280156111225780601f106110f757610100808354040283529160200191611122565b820191906000526020600020905b81548152906001019060200180831161110557829003601f168201915b505050505081526020016001820154815250508152602001906001019061107e565b505050509150505b919050565b6007546040805160a08101825282815260208082018881529282018790526060820186905260808201859052600680546001810180835560009290925283517ff652222313e28459528d920b65115c16c04f3efc82aaedc97be59f3f377c0d3f6005909202918201908155945180518a97969395946111f4937ff652222313e28459528d920b65115c16c04f3efc82aaedc97be59f3f377c0d4001920190611f84565b50604082015160028201556060820151805161121a916003840191602090910190611f84565b5060808201518051611236916004840191602090910190611f84565b50506007805460010190555050505050505050565b6060600061125a600c82612002565b506000611268600d82612002565b5060005b60058360405161127c91906125fd565b908152604051908190036020019020548110156114115760606005846040516112a591906125fd565b908152602001604051809103902082815481106112be57fe5b600091825260209182902001805460408051601f600260001961010060018716150201909416939093049283018590048502810185019091528181529283018282801561134c5780601f106113215761010080835404028352916020019161134c565b820191906000526020600020905b81548152906001019060200180831161132f57829003601f168201915b50505050509050600060048560405161136591906125fd565b90815260200160405180910390208260405161138191906125fd565b90815260408051918290036020908101832054838301909252848352828101829052600d8054600181018083556000929092528451805194965091949360029091027fd7b6990105719101dabeb77144f2a3385c8033acd3af97e9423a695e81ad1eb501926113f4928492910190611f84565b50602082015181600101555050505050808060010191505061126c565b506114fd600d805480602002602001604051908101604052809291908181526020016000905b82821015610fc25760008481526020908190206040805160028681029093018054600181161561010002600019011693909304601f8101859004909402810160609081018352918101848152909384928491908401828280156114db5780601f106114b0576101008083540402835291602001916114db565b820191906000526020600020905b8154815290600101906020018083116114be57829003601f168201915b5050505050815260200160018201548152505081526020019060010190611437565b600d5460005b600d5481101561158257600c600d8260018503038154811061152157fe5b60009182526020808320845460018181018088559686529290942060029384029091018054909484029091019261156c9284928692610100928216159290920260001901160461202e565b5060019182015490820155919091019050611503565b50600c805480602002602001604051908101604052809291908181526020016000905b828210156111445760008481526020908190206040805160028681029093018054600181161561010002600019011693909304601f8101859004909402810160609081018352918101848152909384928491908401828280156116495780601f1061161e57610100808354040283529160200191611649565b820191906000526020600020905b81548152906001019060200180831161162c57829003601f168201915b50505050508152602001600182015481525050815260200190600101906115a5565b6009805460018082019092556040805160808101825282815260208082018881529282018790526060820186905260088054958601808255600091909152825160049096027ff3f7a9fe364faab93b216da50a3214154f22a0a2b415b23a84c8169e8b636ee38101968755935180519596899692959093611712937ff3f7a9fe364faab93b216da50a3214154f22a0a2b415b23a84c8169e8b636ee4909201920190611f84565b506040820151600282015560608201518051611738916003840191602090910190611f84565b505050505050505050565b8151602081840181018051600282529282019185019190912091905280548290811061176b57fe5b600091825260209182902001805460408051601f600260001961010060018716150201909416939093049283018590048502810185019091528181529450909250908301828280156117fe5780601f106117d3576101008083540402835291602001916117fe565b820191906000526020600020905b8154815290600101906020018083116117e157829003601f168201915b505050505081565b600c818154811061181357fe5b60009182526020918290206002918202018054604080516001831615610100026000190190921693909304601f8101859004850282018501909352828152909350918391908301828280156118a95780601f1061187e576101008083540402835291602001916118a9565b820191906000526020600020905b81548152906001019060200180831161188c57829003601f168201915b5050505050908060010154905082565b600881815481106118c657fe5b9060005260206000209060040201600091509050806000015490806001018054600181600116156101000203166002900480601f0160208091040260200160405190810160405280929190818152602001828054600181600116156101000203166002900480156119785780601f1061194d57610100808354040283529160200191611978565b820191906000526020600020905b81548152906001019060200180831161195b57829003601f168201915b505050506002838101546003850180546040805160206001841615610100026000190190931695909504601f810183900483028601830190915280855295969295929450909190830182828015611a105780601f106119e557610100808354040283529160200191611a10565b820191906000526020600020905b8154815290600101906020018083116119f357829003601f168201915b5050505050905084565b60075481565b60068181548110611a2d57fe5b9060005260206000209060050201600091509050806000015490806001018054600181600116156101000203166002900480601f016020809104026020016040519081016040528092919081815260200182805460018160011615610100020316600290048015611adf5780601f10611ab457610100808354040283529160200191611adf565b820191906000526020600020905b815481529060010190602001808311611ac257829003601f168201915b505050506002838101546003850180546040805160206001841615610100026000190190931695909504601f810183900483028601830190915280855295969295929450909190830182828015611b775780601f10611b4c57610100808354040283529160200191611b77565b820191906000526020600020905b815481529060010190602001808311611b5a57829003601f168201915b5050505060048301805460408051602060026001851615610100026000190190941693909304601f8101849004840282018401909252818152949594935090830182828015611c075780601f10611bdc57610100808354040283529160200191611c07565b820191906000526020600020905b815481529060010190602001808311611bea57829003601f168201915b5050505050905085565b600b5481565b8151602081840181018051600582529282019185019190912091905280548290811061176b57fe5b600d818154811061181357fe5b805160208183018101805160038252928201919093012091525481565b606060005b600654811015611da25782604051602001611c899190612609565b6040516020818303038152906040528051906020012060068281548110611cac57fe5b906000526020600020906005020160000154604051602001611cce9190612609565b604051602081830303815290604052805190602001201415611d9a5760068181548110611cf757fe5b6000918252602091829020600460059092020101805460408051601f6002600019610100600187161502019094169390930492830185900485028101850190915281815292830182828015611d8d5780601f10611d6257610100808354040283529160200191611d8d565b820191906000526020600020905b815481529060010190602001808311611d7057829003601f168201915b505050505091505061114c565b600101611c6e565b5060405162461bcd60e51b8152600401611dbb906126fe565b60405180910390fd5b6000805b600654811015611da25782604051602001611de39190612609565b6040516020818303038152906040528051906020012060068281548110611e0657fe5b906000526020600020906005020160000154604051602001611e289190612609565b604051602081830303815290604052805190602001201415611e4b57905061114c565b600101611dc8565b818180821415611e64575050611f7f565b600085600286860305860181518110611e7957fe5b60200260200101516020015190505b818313611f55575b80868481518110611e9d57fe5b6020026020010151602001511015611eba57600190920191611e90565b858281518110611ec657fe5b602002602001015160200151811015611ee55760001990910190611eba565b818313611f5057858281518110611ef857fe5b6020026020010151868481518110611f0c57fe5b6020026020010151878581518110611f2057fe5b60200260200101888581518110611f3357fe5b602090810291909101019190915252600190920191600019909101905b611e88565b81851215611f6857611f68868684611e53565b83831215611f7b57611f7b868486611e53565b5050505b505050565b828054600181600116156101000203166002900490600052602060002090601f016020900481019282601f10611fc557805160ff1916838001178555611ff2565b82800160010185558215611ff2579182015b82811115611ff2578251825591602001919060010190611fd7565b50611ffe9291506120a3565b5090565b815481835581811115611f7f57600202816002028360005260206000209182019101611f7f91906120c0565b828054600181600116156101000203166002900490600052602060002090601f016020900481019282601f106120675780548555611ff2565b82800160010185558215611ff257600052602060002091601f016020900482015b82811115611ff2578254825591600101919060010190612088565b6120bd91905b80821115611ffe57600081556001016120a9565b90565b6120bd91905b80821115611ffe5760006120da82826120ea565b50600060018201556002016120c6565b50805460018160011615610100020316600290046000825580601f10612110575061212e565b601f01602090049060005260206000209081019061212e91906120a3565b50565b600082601f83011261214257600080fd5b81356121556121508261285b565b612835565b9150808252602083016020830185838301111561217157600080fd5b61217c838284612895565b50505092915050565b8035612190816128db565b92915050565b6000602082840312156121a857600080fd5b81356001600160401b038111156121be57600080fd5b6121ca84828501612131565b949350505050565b6000806000606084860312156121e757600080fd5b83356001600160401b038111156121fd57600080fd5b61220986828701612131565b935050602061221a86828701612185565b92505060408401356001600160401b0381111561223657600080fd5b61224286828701612131565b9150509250925092565b6000806000806080858703121561226257600080fd5b84356001600160401b0381111561227857600080fd5b61228487828801612131565b945050602061229587828801612185565b93505060408501356001600160401b038111156122b157600080fd5b6122bd87828801612131565b92505060608501356001600160401b038111156122d957600080fd5b6122e587828801612131565b91505092959194509250565b6000806040838503121561230457600080fd5b82356001600160401b0381111561231a57600080fd5b61232685828601612131565b92505060208301356001600160401b0381111561234257600080fd5b61234e85828601612131565b9150509250929050565b6000806040838503121561236b57600080fd5b82356001600160401b0381111561238157600080fd5b61238d85828601612131565b925050602061234e85828601612185565b6000602082840312156123b057600080fd5b60006121ca8484612185565b600080600080600060a086880312156123d457600080fd5b60006123e08888612185565b95505060206123f188828901612185565b94505060408601356001600160401b0381111561240d57600080fd5b61241988828901612131565b93505060608601356001600160401b0381111561243557600080fd5b61244188828901612131565b92505060808601356001600160401b0381111561245d57600080fd5b61246988828901612131565b9150509295509295909350565b600061248283836125a8565b9392505050565b600061249482612888565b61249e818561288c565b9350836020820285016124b085612882565b8060005b858110156124ea57848403895281516124cd8582612476565b94506124d883612882565b60209a909a01999250506001016124b4565b5091979650505050505050565b600061250282612888565b61250c818561288c565b935061251c8185602086016128a1565b612525816128d1565b9093019392505050565b600061253a82612888565b612544818561114c565b93506125548185602086016128a1565b9290920192915050565b600061256b60288361288c565b7f5468697320737461746520646f6573206e6f7420657869737420696e20626c6f815267636b636861696e2160c01b602082015260400192915050565b80516040808452600091908401906125c082826124f7565b91505060208301516125d560208601826125dd565b509392505050565b6125e6816120bd565b82525050565b6125e66125f8826120bd565b6120bd565b6000612482828461252f565b600061261582846125ec565b50602001919050565b602080825281016124828184612489565b6020808252810161248281846124f7565b6101008082528101612652818b6124f7565b9050612661602083018a6125dd565b818103604083015261267381896124f7565b9050818103606083015261268781886124f7565b9050818103608083015261269b81876124f7565b90506126aa60a08301866125dd565b81810360c08301526126bc81856124f7565b905081810360e08301526126d081846124f7565b9a9950505050505050505050565b604080825281016126ef81856124f7565b905061248260208301846125dd565b602080825281016121908161255e565b6020810161219082846125dd565b6080810161272a82876125dd565b818103602083015261273c81866124f7565b905061274b60408301856125dd565b818103606083015261275d81846124f7565b9695505050505050565b60a0810161277582886125dd565b818103602083015261278781876124f7565b905061279660408301866125dd565b81810360608301526127a881856124f7565b905081810360808301526127bc81846124f7565b979650505050505050565b60c081016127d582896125dd565b6127e260208301886125dd565b6127ef60408301876125dd565b818103606083015261280181866124f7565b9050818103608083015261281581856124f7565b905081810360a083015261282981846124f7565b98975050505050505050565b6040518181016001600160401b038111828210171561285357600080fd5b604052919050565b60006001600160401b0382111561287157600080fd5b506020601f91909101601f19160190565b60200190565b5190565b90815260200190565b82818337506000910152565b60005b838110156128bc5781810151838201526020016128a4565b838111156128cb576000848401525b50505050565b601f01601f191690565b6128e4816120bd565b811461212e57600080fdfea365627a7a72315820ae0be10c78557bcdb16910f42ad8a287361b11fba05194d3928bbe4cc013fd4c6c6578706572696d656e74616cf564736f6c63430005100040",
  "source": "pragma solidity ^0.5.0;\r\npragma experimental ABIEncoderV2;\r\ncontract HealthSystem{\r\n    struct Address{\r\n        string streetName;\r\n        string cityName;\r\n        uint pinCode;\r\n        string stateName;\r\n        string countryName;\r\n    }\r\n    \r\n    struct Patient{\r\n        uint patientId;\r\n        string name;\r\n        uint yearOfBirth;\r\n        string gender;\r\n        string city;\r\n        // Address patientAddress;\r\n        // uint[] hrIds ;\r\n    }\r\n    \r\n    struct Doctor{\r\n        uint doctorId;\r\n        string name;\r\n        uint licenseNo;\r\n        string specialization;\r\n    }\r\n    \r\n    struct HealthRecord{\r\n        uint healthRecordId;\r\n        uint patientId;\r\n        uint doctorId;\r\n        string prescription;\r\n        string feedBack;\r\n        string disease;\r\n        // we further need to add test reports and etc etc\r\n    }\r\n    \r\n    struct OutputRecord{\r\n        string name;\r\n        uint val;\r\n    }\r\n    \r\n    //start\r\n    mapping(string => uint) public isCityPresent;\r\n    mapping(string => mapping(string => uint) ) public cityDiseaseMp;\r\n    mapping(string => string[]) public cityDiseases;\r\n    \r\n    mapping(string => uint) public isDiseasePresent;\r\n    mapping(string => mapping(string => uint) ) public diseaseCityMp;\r\n    mapping(string => string[]) public diseaseInCities;\r\n    \r\n    // patient functions\r\n    Patient[] public Patients_list;\r\n    uint public nextPatientId=1;\r\n\r\n    function newPatientReg(string memory name, uint yearOfBirth, string memory gender, string memory city) public{\r\n        uint _yearOfBirth = yearOfBirth;\r\n        uint _id = nextPatientId;\r\n        Patients_list.push(Patient(_id, name, _yearOfBirth, gender, city));\r\n        nextPatientId++;\r\n    }\r\n    \r\n    function searchPatient(uint patientId) view public returns(string memory,uint, string memory,string memory, string memory,uint, string memory,string memory){\r\n        uint i=find_id(patientId);\r\n        return(\"Id\", Patients_list[i].patientId, \"Patient name\", Patients_list[i].name,\"Date of Birth\", Patients_list[i].yearOfBirth, \"Gender\", Patients_list[i].gender);\r\n    }\r\n    \r\n    function find_id(uint patientId)view internal returns(uint){\r\n        for(uint i=0;i<Patients_list.length;i++){\r\n            if(keccak256(abi.encodePacked(Patients_list[i].patientId))== keccak256(abi.encodePacked(patientId)))\r\n            {\r\n                return i;\r\n            }\r\n        }\r\n        revert('This state does not exist in blockchain!');\r\n    }\r\n    \r\n    function find_city(uint patientId) view internal returns(string memory){\r\n        for(uint i=0;i<Patients_list.length;i++){\r\n            if(keccak256(abi.encodePacked(Patients_list[i].patientId))== keccak256(abi.encodePacked(patientId)))\r\n            {\r\n                return Patients_list[i].city;\r\n            }\r\n        }\r\n        revert('This state does not exist in blockchain!');\r\n    }\r\n    \r\n    function isPresent(string memory name)view internal returns(uint){\r\n        uint k=0;\r\n        for(uint i=0;i<Patients_list.length;i++){\r\n            if(keccak256(abi.encodePacked(Patients_list[i].name))==keccak256(abi.encodePacked(name)))\r\n            {\r\n                 k=1;\r\n            }\r\n        }\r\n        return k;\r\n    }\r\n    \r\n    \r\n    // doctor functions\r\n    Doctor[] public Doctors_list;\r\n    uint public nextDoctorId=1;\r\n    \r\n    function newDoctorReg(string memory name, uint licenseNo, string memory specialization) public{\r\n        uint _id = nextDoctorId;\r\n        nextDoctorId++;\r\n        uint _licenseNo = licenseNo;\r\n        Doctors_list.push(Doctor(_id, name, _licenseNo, specialization));\r\n    }\r\n    \r\n    // Health Record functions\r\n    HealthRecord[] public HealthRecords_list;\r\n    uint public nextRecordId=1;\r\n    \r\n    \r\n    function newRecordReg(uint patientId, uint doctorId, string memory prescription, string memory feedBack, string memory disease) public{\r\n        uint _id = nextRecordId;\r\n        nextRecordId++;\r\n        uint _patientId = patientId;\r\n        string memory city = find_city(patientId); // we need to write a function to query the city\r\n        if(isCityPresent[city] == 0){\r\n            cityDiseases[city].push(disease);\r\n            cityDiseaseMp[city][disease] = 1;\r\n            isCityPresent[city] = 1;\r\n        }else{\r\n            if(cityDiseaseMp[city][disease] == 0){\r\n                cityDiseaseMp[city][disease] = 1;\r\n                cityDiseases[city].push(disease);\r\n            }else{\r\n                cityDiseaseMp[city][disease]++;\r\n            }\r\n        }\r\n        \r\n        if(isDiseasePresent[disease] == 0){\r\n            isDiseasePresent[disease] = 1;\r\n            diseaseInCities[disease].push(city);\r\n            diseaseCityMp[disease][city] = 1;\r\n        }else{\r\n            if(diseaseCityMp[disease][city] == 0){\r\n                diseaseCityMp[disease][city] = 1;\r\n                diseaseInCities[disease].push(city);\r\n            }else{\r\n                diseaseCityMp[disease][city]++;\r\n            }\r\n        }\r\n        \r\n        uint _doctorId = doctorId;\r\n        HealthRecords_list.push(HealthRecord(_id, _patientId, _doctorId, prescription, feedBack, disease));\r\n    }\r\n    \r\n    function quickSort(OutputRecord[] memory arr, int left, int right) internal{\r\n        int i = left;\r\n        int j = right;\r\n        if(i==j) return;\r\n        uint pivot = arr[uint(left + (right - left) / 2)].val;\r\n        while (i <= j) {\r\n            while (arr[uint(i)].val < pivot) i++;\r\n            while (pivot < arr[uint(j)].val) j--;\r\n            if (i <= j) {\r\n                (arr[uint(i)], arr[uint(j)]) = (arr[uint(j)], arr[uint(i)]);\r\n                i++;\r\n                j--;\r\n            }\r\n        }\r\n        if (left < j)\r\n            quickSort(arr, left, j);\r\n        if (i < right)\r\n            quickSort(arr, i, right);\r\n    }\r\n    \r\n    OutputRecord[] public Result;\r\n    OutputRecord[] public tmp;\r\n    \r\n    function getDiseaseInCity(string memory city) public returns(OutputRecord[] memory){\r\n        Result.length = 0;\r\n        tmp.length = 0;\r\n        for(uint i=0; i<cityDiseases[city].length; i++){\r\n            string memory curDisease = cityDiseases[city][i];\r\n            uint curVal = cityDiseaseMp[city][curDisease];\r\n            tmp.push(OutputRecord(curDisease, curVal));\r\n            \r\n            // if(curVal > mxval){\r\n            //     mxval = curVal;\r\n            //     disease = curDisease;\r\n            // }\r\n        }\r\n        quickSort(tmp, int(0), int(tmp.length - 1));\r\n        uint len = tmp.length;\r\n        for(uint i=0; i<tmp.length; i++){\r\n            Result.push(tmp[len - 1 - i]);\r\n        }\r\n        return Result;\r\n    }\r\n    \r\n    function getCityByDisease(string memory disease) public returns(OutputRecord[] memory){\r\n        Result.length = 0;\r\n        tmp.length = 0;\r\n        for(uint i=0; i<diseaseInCities[disease].length; i++){\r\n            string memory curCity = diseaseInCities[disease][i];\r\n            uint curVal = diseaseCityMp[disease][curCity];\r\n            tmp.push(OutputRecord(curCity, curVal));\r\n        }\r\n        quickSort(tmp, int(0), int(tmp.length - 1));\r\n        uint len = tmp.length;\r\n        for(uint i=0; i<tmp.length; i++){\r\n            Result.push(tmp[len - 1 - i]);\r\n        }\r\n        return Result;\r\n    }\r\n    \r\n    \r\n}",
  "sourcePath": "G:\\Repo\\healthCareSystem\\contracts\\HealthSystem.sol",
  "compiler": {
    "name": "solc",
    "version": "0.5.16+commit.9c3226ce.Emscripten.clang"
  },
  "schemaVersion": "3.4.3",
  "updatedAt": "2021-11-15T18:46:23.212Z",
  "networkType": "ethereum",
  "devdoc": {
    "methods": {}
  },
  "userdoc": {
    "methods": {}
  }
}